:100000000C94CF000C9444180C9471180C94F700C5
:100010000C94F7000C94F7000C94F7000C94F70084
:100020000C94F7000C94F7000C94F7000C94F70074
:100030000C94F7000C94F7000C94F7000C94F70064
:100040000C94AA050C94F7000C9482020C94D00234
:100050000C94F7000C94F7000C94F7000C94F70044
:100060000C94F7000C94F700676F6F676C652E6354
:100070006F6D002F666F6F2F0000000000240027B7
:10008000002A0000000000250028002B00000000CE
:1000900000230026002900040404040404040402CC
:1000A0000202020202030303030303010204081015
:1000B00020408001020408102001020408102000E2
:1000C0000000070002010000030406000000000019
:1000D0000000000001080006040001450000820045
:1000E0000040002000504F535420244620485454D0
:1000F000502F312E300D0A486F73743A2024460D6C
:100100000A244624534163636570743A202A2F2AD7
:100110000D0A436F6E74656E742D4C656E6774685E
:100120003A2024440D0A436F6E74656E742D547921
:1001300070653A206170706C69636174696F6E2FCD
:10014000782D7777772D666F726D2D75726C656E71
:10015000636F6465640D0A0D0A24530047455420FB
:100160002446245320485454502F312E300D0A4831
:100170006F73743A2024460D0A24460D0A0D0A00B6
:100180004163636570743A20746578742F68746D88
:100190006C00E30004FA0001000000013C0411249B
:1001A0001FBECFEFD8E0DEBFCDBF11E0A0E0B1E0D1
:1001B000E6EFF1E302C005900D92AC3DB107D9F72F
:1001C00016E0ACEDB1E001C01D92A934B107E1F732
:1001D00011E0CEE9D1E004C02297FE010E94F5189B
:1001E000CC39D107C9F70E949B050C94F9180C94DF
:1001F0000000FB01DC0102C005900D92415050400F
:10020000D8F70895FB01DC0104C08D91019080199D
:1002100021F441505040C8F7881B990B0895FB0109
:10022000DC0102C001900D9241505040D8F7089572
:10023000FB01DC0101900D920020E1F70895FB0124
:10024000DC014150504030F08D910190801919F43B
:100250000020B9F7881B990B0895FA01CF93FF93FB
:10026000EF93223044F1253234F5C22FE894CA309E
:1002700049F497FB3EF490958095709561957F4F7A
:100280008F4F9F4F2C2F332744275527FF93EF93F2
:100290000E94D118EF91FF91605D6A330CF0695DA7
:1002A0006193B901CA01605070408040904051F79D
:1002B00016F4CDE2C19310828F919F91CF910C944F
:1002C0006101DC01FC01672F71917723E1F732971F
:1002D00004C07C916D9370836291AE17BF07C8F321
:1002E00008950E941F0D0E9444110E94F205209162
:1002F00098043091990440919A0450919B04285796
:100300003C4E4F4F5F4F2617370748075907D0F429
:100310000E94F205609398047093990480939A0464
:1003200090939B0484E295E060E071E00E94880570
:1003300083E790E069E071E048E650E023EA31E0CD
:100340000E943A0F0895EF92FF920F931F937B0143
:1003500004E215E0C8016DE071E00E9485050E948D
:10036000F205AB01BC018091980490919904A09191
:100370009A04B0919B04481B590B6A0B7B0BC80174
:100380002AE030E00E946405C80168E171E00E9443
:1003900088058CED91E0E80EF91EC801B7010E94B6
:1003A00088051F910F91FF90EF900895EF92FF92B3
:1003B0000F931F93DF93CF9300D0CDB7DEB785E0C7
:1003C00061E00E94940686E061E00E94940685E068
:1003D00061E00E94D30686E060E00E94D3068AE0D6
:1003E00062E042ED0E94921700E010E07E01089466
:1003F000E11CF11C1A83098380E0B70142E00E94EE
:10040000451764E670E080E090E00E9400060F5F10
:100410001F4F0A30110571F786E061E00E94D30694
:1004200084E295E040E855E260E070E00E940B0352
:1004300084E295E06CE171E00E9488058CEB92E02B
:1004400063E971E048E00E949907882351F484E24F
:1004500095E06DE271E00E94880586E060E00E9410
:10046000D3060E94130B882351F484E295E062E5E1
:1004700071E00E94880586E060E00E94D3068EE568
:1004800091E065E775E00E94291586E691E06DE749
:1004900075E00E9429158EE691E065E875E00E94FE
:1004A000291585E060E00E94D30688E690E060E0D0
:1004B0000E94480B882351F484E295E067E771E0DD
:1004C0000E94880586E060E00E94D30682E891E001
:1004D00069E875E00E94291588E79CEEAFEFBFEF51
:1004E0008093980490939904A0939A04B0939B04EA
:1004F0000F900F90CF91DF911F910F91FF90EF9090
:10050000089508951F920F920FB60F9211242F9302
:100510003F934F938F939F93EF93FF938091C000EE
:1005200082FD1DC04091C6002091DC043091DD04A5
:100530002F5F3F4F2F7330708091DE049091DF0466
:100540002817390771F0E091DC04F091DD04E456DE
:10055000FB4F40833093DD042093DC0402C0809184
:10056000C600FF91EF919F918F914F913F912F91F5
:100570000F900FBE0F901F901895E0913005F091ED
:100580003105E05CFF4F8191919120813181821B87
:10059000930B8F739070892B11F00E948102089544
:1005A0001F920F920FB60F9211242F933F938F93A8
:1005B0009F93EF93FF932091200530912105809127
:1005C0002205909123052817390731F48091C10045
:1005D0008F7D8093C10014C0E0912205F091230526
:1005E000E052FB4F208180912205909123050196D6
:1005F0008F73907090932305809322052093C600FB
:10060000FF91EF919F918F913F912F910F900FBE8E
:100610000F901F901895AF92BF92DF92EF92FF92CA
:100620000F931F93CF93DF93EC017A018B01DD24AD
:10063000403081EE580780E0680780E0780711F0CD
:10064000DD24D39491E0A92EB12CEC89FD89DD2025
:1006500069F0C50108A002C0880F991F0A94E2F74B
:10066000808360E079E08DE390E005C0108260E86F
:1006700074E88EE190E0A80197010E94D118215002
:10068000304040405040569547953795279580E13A
:100690002030380720F0DD2011F0DD24D6CFE889A6
:1006A000F9893083EA89FB89208319A2EE89FF89C1
:1006B000408121E030E0C9010C8C02C0880F991FF5
:1006C0000A94E2F7482B4083EE89FF894081C901F3
:1006D0000D8C02C0880F991F0A94E2F7482B4083C3
:1006E000EE89FF894081C9010E8C02C0880F991FD5
:1006F0000A94E2F7482B4083EE89FF8980810F8CB2
:1007000002C0220F331F0A94E2F72095282320838A
:10071000DF91CF911F910F91FF90EF90DF90BF90ED
:10072000AF900895DC011C96ED91FC911D97E05C63
:10073000FF4F2191319180819181281B390B2F73BB
:100740003070C9010895DC011C96ED91FC911D9754
:10075000E05CFF4F20813181E054F040DF01AE5B6F
:10076000BF4F8D919C9111972817390719F42FEFDE
:100770003FEF07C08D919C91E80FF91F8081282FD2
:1007800030E0C9010895DC011C96ED91FC911D97A4
:10079000E05CFF4F20813181E054F040DF01AE5B2F
:1007A000BF4F8D919C9111972817390719F42FEF9E
:1007B0003FEF10C08D919C911197E80FF91F208198
:1007C0008D919C91119701968F73907011969C93C7
:1007D0008E9330E0C9010895DC0191968C91919738
:1007E000882339F05496ED91FC915597808186FFCE
:1007F000F9CF91961C920895CF93DF93EC01EE858B
:10080000FF85E05CFF4F20813181E054F0402F5F95
:100810003F4F2F733070DF01AE5BBF4F8D919C91C6
:10082000119728173907D1F3E05CFF4F8081918140
:10083000E054F040E80FF91F6083EE85FF85E05C2F
:10084000FF4F31832083EE89FF89208181E090E092
:100850000F8C02C0880F991F0A94E2F7282B20837F
:1008600081E089A3EC89FD8980818064808381E0B7
:1008700090E0DF91CF910895109227051092260500
:1008800088EE93E0A0E0B0E08093280590932905DE
:10089000A0932A05B0932B058BEB91E0909325054F
:1008A000809324058CE994E0909331058093300582
:1008B00080EE94E0909333058093320585EC90E0D0
:1008C000909335058093340584EC90E09093370540
:1008D0008093360580EC90E090933905809338053D
:1008E00081EC90E090933B0580933A0582EC90E098
:1008F00090933D0580933C0586EC90E090933F05F6
:1009000080933E0584E08093400583E08093410519
:1009100087E08093420585E08093430581E08093E2
:1009200044050895CF92DF92EF92FF920F931F93A9
:10093000CF93DF937C016B018A01C0E0D0E00FC050
:10094000D6016D916D01D701ED91FC910190F0817F
:10095000E02DC7010995C80FD91F0150104001159E
:10096000110571F7CE01DF91CF911F910F91FF908B
:10097000EF90DF90CF900895DC01ED91FC91019014
:10098000F081E02D09950895EF92FF920F931F9348
:100990008C01DC01ED91FC910190F081E02D6DE086
:1009A00009957C01D801ED91FC910190F081E02D39
:1009B000C8016AE009959C012E0D3F1DC9011F91D8
:1009C0000F91FF90EF900895CF93DF93EC016115A5
:1009D000710519F420E030E00FC0DB010D9000201C
:1009E000E9F71197A61BB70BE881F9810280F38123
:1009F000E02DAD0109959C01C901DF91CF910895CA
:100A00004F925F927F928F929F92AF92BF92CF92BE
:100A1000DF92EF92FF920F931F93DF93CF93CDB7A7
:100A2000DEB7A1970FB6F894DEBF0FBECDBF2C0185
:100A3000742ECB01223008F42AE019A231E2C32E31
:100A4000D12CCC0EDD1E822E9924AA24BB24672D26
:100A5000752FA50194010E94D11879018A01C8015E
:100A6000B701A50194010E949E18472D461B0894CA
:100A7000C108D1084A3014F4405D01C0495CF60158
:100A80004083E114F1040105110521F07E2C5F2D56
:100A9000C801DDCFC201B6010E94E404A1960FB6E1
:100AA000F894DEBF0FBECDBFCF91DF911F910F91A4
:100AB000FF90EF90DF90CF90BF90AF909F908F907E
:100AC0007F905F904F900895DC012115310541F42E
:100AD000ED91FC910190F081E02D642F099508952E
:100AE0000E9400050895EF92FF920F931F939A01C1
:100AF000E62EFF2400E010E0B801A7010E94640583
:100B00001F910F91FF90EF9008950E94E4040895C3
:100B1000EF92FF920F931F937C010E94E4048C01DB
:100B2000C7010E94C404080F191FC8011F910F912B
:100B3000FF90EF900895CF93DF930E9459060E9493
:100B4000D601CDEBD2E00E9471012097E1F30E9423
:100B5000BD02F9CF1F920F920FB60F9211242F935F
:100B60003F938F939F93AF93BF9380914A0590914A
:100B70004B05A0914C05B0914D0530914E05019665
:100B8000A11DB11D232F2D5F2D3720F02D5701966C
:100B9000A11DB11D20934E0580934A0590934B05EE
:100BA000A0934C05B0934D05809146059091470563
:100BB000A0914805B09149050196A11DB11D8093F2
:100BC000460590934705A0934805B0934905BF910A
:100BD000AF919F918F913F912F910F900FBE0F90EA
:100BE0001F9018958FB7F89420914A0530914B05C6
:100BF00040914C0550914D058FBFB901CA01089530
:100C00009B01AC017FB7F894809146059091470510
:100C1000A0914805B091490566B5A89B05C06F3FF6
:100C200019F00196A11DB11D7FBFBA2FA92F982FD2
:100C30008827860F911DA11DB11D62E0880F991FA5
:100C4000AA1FBB1F6A95D1F7BC012DC0FFB7F8944E
:100C50008091460590914705A0914805B0914905BE
:100C6000E6B5A89B05C0EF3F19F00196A11DB11D87
:100C7000FFBFBA2FA92F982F88278E0F911DA11D76
:100C8000B11DE2E0880F991FAA1FBB1FEA95D1F79B
:100C9000861B970B885E9340C8F22150304040403D
:100CA000504068517C4F211531054105510571F6C1
:100CB0000895789484B5826084BD84B5816084BDD4
:100CC00085B5826085BD85B5816085BDEEE6F0E0C5
:100CD000808181608083E1E8F0E010828081826021
:100CE0008083808181608083E0E8F0E080818160A2
:100CF0008083E1EBF0E0808184608083E0EBF0E0D2
:100D0000808181608083EAE7F0E080818460808375
:100D1000808182608083808181608083808180681F
:100D200080831092C1000895CF93DF93482F50E045
:100D3000CA0185559F4FFC01349149565F4FFA0116
:100D40008491882369F190E0880F991FFC01E7588E
:100D5000FF4FA591B491FC01ED57FF4FC591D49180
:100D6000662351F42FB7F8948C91932F9095892393
:100D70008C93888189230BC0623061F42FB7F8947B
:100D80008C91932F909589238C938881832B8883D2
:100D90002FBF06C09FB7F8948C91832B8C939FBF75
:100DA000DF91CF910895482F50E0CA0181549F4FA1
:100DB000FC012491CA0185559F4FFC01949149562D
:100DC0005F4FFA013491332309F440C0222351F1DB
:100DD000233071F0243028F42130A1F0223011F5B5
:100DE00014C02630B1F02730C1F02430D9F404C04B
:100DF000809180008F7703C0809180008F7D8093E9
:100E0000800010C084B58F7702C084B58F7D84BD0B
:100E100009C08091B0008F7703C08091B0008F7DB2
:100E20008093B000E32FF0E0EE0FFF1FED57FF4F70
:100E3000A591B4912FB7F894662321F48C919095E5
:100E4000892302C08C91892B8C932FBF0895682F22
:100E500070E0CB0181549F4FFC012491CB0185555B
:100E60009F4FFC01449169567F4FFB019491992358
:100E700019F420E030E03CC0222351F1233071F01E
:100E8000243028F42130A1F0223011F514C026308E
:100E9000B1F02730C1F02430D9F404C08091800033
:100EA0008F7703C0809180008F7D8093800010C079
:100EB00084B58F7702C084B58F7D84BD09C08091D1
:100EC000B0008F7703C08091B0008F7D8093B00019
:100ED000892F90E0880F991F83579F4FFC01A591A0
:100EE000B4918C9120E030E0842311F021E030E0D7
:100EF000C9010895CF93DF93EC019B018A309105DE
:100F000048F06AE070E00E94BD18CB01B9010E9470
:100F10007A079C01CE016AE070E00E94BD18805DF6
:100F2000F9018193D90111961C92CF01DF91CF91E4
:100F30000895AF92BF92CF92DF92FF920F931F93CB
:100F4000CF93DF938C01EB01F42E10928D0538E3E3
:100F500041E050E060E070E018C0832F90E0FC01B9
:100F6000B3E0F595E795BA95E1F7E15BFA4F877045
:100F700090705A016B0104C0AA0CBB1CCC1CDD1C78
:100F80008A95D2F720812A292083315031F78FE6C4
:100F900095E0BE010E944015C8016FE675E04F2D37
:100FA0000E94040EDF91CF911F910F91FF90DF906F
:100FB000CF90BF90AF900895CF92DF92EF92FF92C3
:100FC0000F931F93DF93CF93CDB7DEB7EB84FC84F1
:100FD000CD84DE84DE011F9601C0D801F601849124
:100FE000882309F4BAC00894C11CD11C843209F0CA
:100FF00097C0F6010894C11CD11C8491863409F471
:101000005DC0873434F4843469F0853409F088C0D5
:101010006CC08C34B9F1833509F443C0883409F0CD
:101020007FC00BC08D010E5F1F4FF7016681778176
:101030008D919C910E947A077EC02C91822F9927D6
:1010400087FD909514E0959587951A95E1F78F7037
:101050002F702A300CF0295F8A300CF0895F8D01E7
:101060000E5F1F4FF701A681B781805DFD0181935F
:10107000205D11962C933196D7011796FC93EE9331
:101080001697ABCF8D010C5F1F4F6D917D918D91A8
:101090009C91F701468157812AE030E00E942D01A2
:1010A0004AC08D010E5F1F4F6D917C91D70116963E
:1010B0008D919C9117970E9418013DC08D010E5F84
:1010C0001F4F2D913C910AC0D7011696ED91FC91CE
:1010D000179781931796FC93EE931697F9012F5F5C
:1010E0003F4F8491882381F778CF8D010E5F1F4F8A
:1010F0002D913C910AC0D7011696ED91FC9117975E
:1011000081931796FC93EE931697F999FECF32BD13
:1011100021BDF89A80B52F5F3F4F882361F75DCFDF
:10112000F70126813781F90181939F01F701378308
:1011300026838D0152CFD70116968D919C911797DA
:10114000FC0101900020E9F73197E81BF90B8E0FA5
:101150009F1FF7019783868340CFCF91DF911F9127
:101160000F91FF90EF90DF90CF900895DF93CF9392
:1011700000D000D000D0CDB7DEB7DE011196E7EC8D
:10118000F1E086E001900D928150E1F786E191E077
:10119000ECEDF1E0DF019C011D9221503040E1F7C0
:1011A00080918F05833019F461E875E003C0BE01BA
:1011B0006F5F7F4F84E490E043E450E00E949D0F16
:1011C00080918F05833039F08CED91E0BE016F5F27
:1011D0007F4F0E94401581E08093060280930702B2
:1011E00086E08093080280919C0590919D05A091D6
:1011F0009E05B0919F0580930A0290930B02A093E5
:101200000C02B0930D0280918F05833039F486E093
:1012100092E00C9665E775E00E94481582E292E044
:101220006FE675E00E944015A2EFB2E0ECEAF1E053
:1012300002C081918D9331E0E23BF307D1F79091A9
:101240008F05992311F083E001C081E08093F802BB
:101250008DE38093F90287E08093FA0281E0809326
:10126000FB02ACEFB2E0EFE6F5E002C081918D93B6
:1012700085E0E537F807D1F78CE0809302038AE038
:1012800080930303EBE9F1E0A4E0B3E002C08191B5
:101290008D9321E0E53AF207D1F72EE033E0309369
:1012A000A1052093A005913069F582E380930E0398
:1012B00084E080930F03D9011296E5E7F5E002C0C0
:1012C00081918D9335E0E937F307D1F786E3809379
:1012D000140384E08093150386E193E09093A105C5
:1012E0008093A005DC01E1E8F5E002C081918D93D7
:1012F00085E0E538F807D1F78AE193E09093A105FE
:101300008093A0052091A0053091A105D901E6EABE
:10131000F1E002C081918D9381E0EC3AF807D1F7BA
:10132000C90106969093A1058093A005865092402E
:101330000E94151126960FB6F894DEBF0FBECDBFE2
:10134000CF91DF910895DF92EF92FF920F931F9359
:10135000CF93DF938C0180918F05823009F4F7C021
:10136000833030F4882351F1813009F054C14AC0F0
:10137000833021F0843009F04EC1E9C00E94F205AB
:1013800020919405309195054091960550919705CF
:10139000E0909005F09091050091920510919305D1
:1013A0002E0D3F1D401F511F6217730784079507BD
:1013B00008F431C10E94B60884E017C00E94F2050B
:1013C00060939C0570939D0580939E0590939F0567
:1013D0001092750510927605109277051092780597
:1013E0000E94B6080E94AF0C81E080938F050E9496
:1013F000F205609398057093990580939A059093F0
:101400009B0509C10634110508F4F0C08091FF0165
:10141000833409F0EBC020910A0230910B02409115
:101420000C0250910D0280919C0590919D05A09118
:101430009E05B0919F05281739074A075B0709F0F9
:10144000D5C0C6EFD2E0FE01A80144525E4FDF01D5
:10145000119691819D012F5F3F4F8081853321F44B
:1014600011968C91823039F0F901E90FF11DE417E2
:10147000F50768F3BBC085E795E066E172E00E947E
:1014800048155CEDE52E51E0F52EE00EF11EFE0153
:101490003196D9808F010F5F1F4F88818630A9F068
:1014A000873030F4813059F0833009F045C00AC0EC
:1014B0008633E9F18A3361F08333F1F509C089E7B6
:1014C00095E037C08DE795E034C085E895E031C000
:1014D000618170E080E090E0982F872F762F66275B
:1014E000F8012181620F711D811D911D982F872F99
:1014F000762F66272281620F711D811D911D982F05
:10150000872F762F66272381620F711D811D911D04
:1015100028EE33E040E050E00E949E18609394056E
:1015200070939505809396059093970505C081E883
:1015300095E0B8010E944815E801CD0DD11DCE15EA
:10154000DF0508F4A4CF0E94B60882E04ECF06342F
:10155000110508F44BC08091FF01833409F046C0A7
:1015600020910A0230910B0240910C0250910D0221
:1015700080919C0590919D05A0919E05B0919F053D
:10158000281739074A075B0789F5E6EFF2E0A8015B
:1015900044525E4FDF01119691819D012F5F3F4FB5
:1015A0008081853321F411968C91853039F0F901D1
:1015B000E90FF11DE417F50768F318C00E94AA0CA3
:1015C0000E94F205609390057093910580939205B7
:1015D0009093930580917D05882321F08DE795E018
:1015E0000E94031083E080938F0515C00E94F205CE
:1015F000209198053091990540919A0550919B054D
:10160000205F384D4F4F5F4F261737074807590760
:1016100010F410928F05DF91CF911F910F91FF90E1
:10162000EF90DF900895CF93DF9381E080938D0555
:1016300090917405892F82958F70805D8093A301AE
:101640009F70905D9093A40110928F050E94F20507
:10165000EB0104C00E941F0D0E94A30980918F0519
:10166000833061F00E94F2056C1B7D0B60567A4E50
:1016700028F40E94E00C882389F3ECCF90E080915D
:101680008F05833009F491E0892FDF91CF91089580
:10169000FF920F931F93CF93DF93182F092FF62EEE
:1016A0000E94F205EB010E94E00C882329F00E94C1
:1016B000340F882309F4DBC00E941F0D0E944411DF
:1016C0000E94F2056C1B7D0B6053754760F3C8C028
:1016D00088E098E0A8E0B8E08093850590938605BF
:1016E000A0938705B09388058091A20590E0906E45
:1016F00065E875E045E350E00E949D0FA6E0B2E08A
:101700008CE0FD0111928A95E9F7812F902FFC0161
:10171000CF011C9630E0FF2019F0FC01208102C0AF
:10172000FC01249101962E3241F0222331F03F5FDB
:10173000FD01E30FF11D2083EECFFD013193DF01A9
:10174000A30FB11D222331F7FD01119211961C92B6
:10175000DF01119641E04183FD01319611961C9203
:10176000418386ED2CED31E0821B32968E0F809303
:1017700006029091A20590930702409308024093BD
:101780000B0290E00E9415110E94F2058B0161C0CE
:101790000E94F205601B710B6053754708F060C032
:1017A0000E941F0DEC01009709F453C00E944411E0
:1017B000892B09F04EC0C634D10508F44AC0809187
:1017C000FF01853309F045C080910002803E09F099
:1017D00040C0909101028091A2059817D1F58091A7
:1017E00007028917B1F58091090290E08F7090701F
:1017F000892B79F580910602E82FF0E0EA5FFD4F32
:101800009E0124523E4F8081807C39F0329609C07F
:101810008081882311F4319604C03196E217F307D2
:10182000B8F3CF010E962817390798F081818130DF
:1018300051F48185843039F43A9689E895E0BF0106
:101840000E94481506C0818590E00A96E80FF91FAE
:10185000DACF80918905882309F49ACF81E001C00D
:1018600080E0DF91CF911F910F91FF90089510922A
:10187000890510928A0510928B0510928C05809133
:10188000A2058F5F8093A20580918505882309F0CA
:101890002BCF1ECF8091A50561E00E94D3067894DE
:1018A0000895FF920F931F93082F162FF42EF8948C
:1018B0008091A50560E00E94D3061F71102B1EBD0C
:1018C0000DB407FEFDCFFEBC0DB407FEFDCF0E9498
:1018D0004A0C1F910F91FF9008951F93182F282FE6
:1018E00030E0207630708091A60590E02817390707
:1018F00099F080EA6FE143E00E94510C412F40765D
:101900004093A60550E085E0559547958A95E1F707
:1019100080E86FE10E94510C1F9108950F931F936F
:10192000182F062F0E946D0C80E4612F402F0E941B
:10193000510C1F910F9108950F931F93182F072F8C
:101940000E948E0C812F8F5F602F0E948E0C1F9142
:101950000F91089588E360EB0E948E0C089588E350
:1019600061EB0E948E0C08950F931F93182F062F82
:10197000F8948091A50560E00E94D306802F8F71B6
:10198000812B8EBD0DB407FEFDCF1EBC0DB407FE2E
:10199000FDCF07FF04C01EBC0DB407FEFDCF1EB572
:1019A0000E944A0C812F1F910F9108951F93182FA9
:1019B0000E946D0C80E0612F0E94B40C1F9108956D
:1019C00084ED61E10E948E0C82ED61E00E948E0C3C
:1019D0008AEE0E94D60C80FDFBCF82ED60E00E9473
:1019E0008E0C89ED0E94D60C90E096958795969581
:1019F0008795817008950F931F93CF93DF93EC0128
:101A00008B01F8948091A50560E00E94D3068AE3DB
:101A10008EBD0DB407FEFDCF09C01EBC0DB407FE80
:101A2000FDCF8EB5F80181938F0121972097A9F7FB
:101A30000E944A0CDF91CF911F910F9108950F934F
:101A40001F93DF93CF9300D000D000D0CDB7DEB787
:101A500089E30E94D60C882319F400E010E048C006
:101A60006091A7057091A80580E00E949C0C86E01B
:101A700090E0BE016F5F7F4F0E94FB0C89819A81CD
:101A80009093A8058093A7052B813C81E091A30545
:101A9000F091A4058D8187FD03C000E010E00EC029
:101AA000245030408F01015010402017310708F4B6
:101AB0008901C8016CED71E00E94FB0CF801E45251
:101AC000FE4F10826091A7057091A8058CE06130EF
:101AD000780724F08CE06FEF7BE003C0615070402A
:101AE0008CE00E949C0C80E86EE140E40E94510C66
:101AF000C80126960FB6F894DEBF0FBECDBFCF91BA
:101B0000DF911F910F9108950F931F93CF93DF9350
:101B10008C01EB01F8948091A50560E00E94D3064A
:101B20008AE78EBD0DB407FEFDCF08C088818EBD4B
:101B30000DB407FEFDCF219601501040011511058F
:101B4000A9F70E944A0CDF91CF911F910F91089540
:101B5000CF93DF93EC010FC08CE10E94D60C81FF84
:101B60000AC080E86FE140E80E94510C80EA6FE112
:101B700040E80E94510C80E06FE10E94B40C83FDAC
:101B8000EBCF82E060E07CE00E949C0CBE016050E4
:101B9000744F86E00E949C0C8AE760E040E00E945F
:101BA000510CCE016CED71E00E94840D80E86FE174
:101BB00048E00E94510CDF91CF9108958AE061E0E6
:101BC0000E9494068AE061E00E94D3068BE061E007
:101BD0000E9494068DE061E00E9494068CE060E033
:101BE0000E9494068BE061E00E94D3068BE060E0E7
:101BF0000E94D3068DE060E00E94D30680E58CBD94
:101C00008DB581608DBD08951F93CF93DF93EB0158
:101C1000142F9093A4058093A3050CB406FC02C076
:101C20000E94DE0D1093A505812F61E00E949406AD
:101C30000E944A0C8FEF60E04FEF0E94510C62E06F
:101C400070E080E090E00E94000680E06DE10E947C
:101C5000B40C8823D1F31092A8051092A70588E050
:101C600060E070E00E949C0C8CE060E070E00E94FC
:101C70009C0C8AE06FEF7BE00E949C0C84E060E0AB
:101C80007CE00E949C0C86E06FEF71E10E949C0C4E
:101C90000E94AF0C88E26FE370E30E949C0C80E32B
:101CA00069EF77EF0E949C0C80EC6DE00E948E0C37
:101CB00081EC60E00E948E0C80E862EC42E30E94BE
:101CC000510C86EC62E17CE00E949C0C84EC62E1A9
:101CD0000E948E0C8AEC6CED75E00E949C0C84EEE8
:101CE00068810E948E0C85EE69810E948E0C82EEC6
:101CF0006A810E948E0C83EE6B810E948E0C80EEB6
:101D00006C810E948E0C81EE6D810E948E0C84EDA0
:101D100060E10E948E0C86ED60E071E00E949C0CF8
:101D20008AEE0E94D60C80FDFBCF8FE10E946D0CE5
:101D300080E86BE140EC0E94510C80E86FE144E0E8
:101D40000E94510C82E70E94D60C863008F08F5F0B
:101D5000DF91CF911F910895FC01A681B7816D930A
:101D6000B783A68381E090E00895DF92EF92FF921F
:101D70000F931F93CF93DF93D82E862FBA01213074
:101D800041F4675F7F4F9B0140E050E06950704035
:101D90000EC0223029F020E030E040E050E007C0E3
:101DA000625070409B0140E050E06E5F7F4FE82E34
:101DB000FF248CED91E0E80EF91E8B01E7010FC0C6
:101DC000F881E0E0898190E08E2B9F2BA0E0B0E0CD
:101DD000280F391F4A1F5B1F229602501040023005
:101DE000110570F7CB018E7FD701A80FB91F6817B7
:101DF000790779F08C9190E0A0E0B0E0BA2FA92F9C
:101E0000982F882702C040E050E0280F391F4A1F52
:101E10005B1FCA01AA27BB270097A105B10599F747
:101E2000C90180959095ED2DF0E0E452FE4F90832E
:101E30008183DF91CF911F910F91FF90EF90DF9001
:101E400008951092F4011092F50180E48093F0015E
:101E50001092F1018093F20188E16EE044E150E0DC
:101E600020E00E94B50E08958091A9058695809581
:101E7000817008959093BE058093BD057093C80549
:101E80006093C7055093C0054093BF0580E891E07B
:101E90009093C2058093C1051092C4051092C305AA
:101EA0003093C6052093C5053091990120919A0180
:101EB00088E794E19093B1058093B00588EB93E1B6
:101EC0009093B3058093B2052093AC053093AD0594
:101ED00081E08093AA058091AB058F5F8770809326
:101EE000AB058093BC0508950F931F93BC010CEDC7
:101EF00011E0C8010E944015C80106966FE675E022
:101F00000E9440151F910F910895EF92FF920F9339
:101F10001F937B010E94740F0AEF11E0C801B70103
:101F20000E944815C801049765E775E00E944815AE
:101F30001F910F91FF90EF900895EF92FF920F93F2
:101F40001F93CF93DF937C01EB018A0184EB95E033
:101F50000E94850F8881807F803E49F08881998129
:101F6000AA81BB818F5F9F4FAF4FBF4F31F48CED84
:101F700091E06DEC71E00E94401588E08093E801EB
:101F80001092E9018AEE91E06BED70E049E050E0DB
:101F90000E94F9001092EC0181E18093F30110930B
:101FA000000200930102F092FE01E092FF01109204
:101FB00002021092040210920502DF91CF911F914C
:101FC0000F91FF90EF900895EF92FF920F931F9360
:101FD00002EE11E0C8010E94740F74E1E72EF12CAB
:101FE000E00EF11EC8014896B7010E944815C701CE
:101FF00065E775E00E9448150E94210F1F910F911F
:10200000FF90EF900895BC0181E08093A9058DE7D2
:1020100095E00E94481508950F931F938C018896B0
:102020009093EC018093ED010E94210F10920E021B
:1020300010920F02045E1F4F82E36AE1A80122E0C2
:102040000E94B50EC8014A960E94A80D1F910F91DB
:102050000895CF93DF939C01862F806180930B02BC
:10206000643029F02115310511F421E030E0909120
:1020700000028091FE01809300029093FE019091F6
:1020800001028091FF01809301029093FF01C5E05E
:10209000D2E08881A901480F511D2C814C832883EF
:1020A000252F3327219752E0C130D50791F71D86A0
:1020B0001E8680E589871092EC0188E28093ED010D
:1020C0000E94E40F84E08B871C8682E36AE14CE186
:1020D00050E022E00E94B50E86E390E00E94A80D39
:1020E000DF91CF910895E82FA091EC01B091ED011F
:1020F000F0910A024091000250E0292F30E042178F
:10210000530709F08EC0809101028E1709F089C033
:1021100080910B02E82F81FF4EC01092EC018CE2FF
:102120008093ED010E94E40F82E180930B02909175
:1021300000028091FE01809300029093FE01909135
:1021400001028091FF01809301029093FF01E5E07D
:10215000F2E021E030E08081A901480F511D448365
:102160001082252F3327319752E0E130F50799F798
:1021700015861686118212828091B501838314829E
:102180008D5F8093B50182E0818B84E0828B95E046
:10219000938B148A80E68187938788E7848782E31C
:1021A0006AE140E250E022E00E94B50E8AE390E04E
:1021B0000E94A80D36C084FF34C04F2F50E084E049
:1021C000559547958A95E1F79A2F80E02B2F30E0BF
:1021D000282B392BCA01880F991F880F991F281B9C
:1021E000390B2451304037FF02C020E030E03093FB
:1021F000BB052093BA05232B69F09A01220F331FE8
:10220000220F331F2E5D3F4F6850704062177307D7
:1022100040F009C0E0FF05C080E090E060E00E946F
:10222000291020E030E0C90108950F931F93DF9338
:10223000CF930F92CDB7DEB78C01045E1F4F109382
:10224000EC010C511040802F845E8093ED01898356
:102250000E94210F085F1F4F109302028981845151
:1022600080930302085F1F4F88E26AE1A80121E022
:102270000E94B50EC8014A960E94A80D0F90CF91FA
:10228000DF911F910F910895DF92EF92FF920F93CC
:102290001F93CF93DF93EC0180918D05882319F074
:1022A000CE010E94A309209709F0BFC08091A90523
:1022B0008570F1F18091B2019091B301892BC1F544
:1022C0000E94E00C8823A1F18DEC91E00E94740F34
:1022D00088E08093E801A6E0FA2EF092E9018AEE08
:1022E00091E063ED70E048E050E00E94F9000CEFEF
:1022F00011E0D8011D92FA94E9F7C8010A976FE638
:1023000075E00E944015C80106966DE775E00E94D1
:102310004815C801049765E775E00E94481580914B
:10232000A90588608093A9058AE290E00E94A80D23
:102330008091B2019091B30101969093B301809383
:10234000B2018091AA05813009F002C28091A905ED
:1023500081FFFEC102E00093AA058091B4018F5F66
:102360008093B4018F711091AB051295110F107EFF
:10237000182BE090AC05D090AD0584EB95E069E8B2
:1023800075E00E94850FF8E0FF2EF092E8011092B0
:10239000E9018AEE91E06BED70E049E050E00E94C7
:1023A000F9008CE28093ED0186E08093F3010E94B6
:1023B000210FE0920002D09201028BE08093FE0197
:1023C0001093FF01E2E0F2E0DF011D92FA94E9F7D9
:1023D0008091B501809304028D5F8093B50180E602
:1023E00080930A0200930B0283E080930C02109208
:1023F0000D0210920E0210920F0210921002109213
:1024000011020093120284E08093130200931402DD
:1024100086E28093150282E36AE140E250E022E026
:102420000E94B50E8AE390E0AEC08091FA018F3E23
:1024300079F48091FB018F3F59F48091FC018F3F2B
:1024400039F48091FD018A3F19F42AE230E082C11B
:10245000C932D10508F47CC11091E801183009F0A7
:1024600082C18091E901863009F07DC182E092E06D
:1024700065E775E044E050E00E940201009709F032
:1024800072C18091F101813029F582EE91E00E94C4
:10249000740F1092F00182E08093F1018CEF91E0D3
:1024A00062EF71E00E94401582EF91E06FE675E007
:1024B0000E94401582E092E068EF71E00E944815AA
:1024C00088EF91E065E775E00E9448158AE290E0A8
:1024D0000E94A80D8091A90583FF3AC11091F101D6
:1024E000123009F035C188EF91E06DE775E044E006
:1024F00050E00E940201009709F02AC184EB95E0A8
:1025000062EF71E00E9440151093A90521C11830B7
:1025100009F01EC18091E901882309F019C1809159
:10252000EA01853409F014C18AEF91E065E775E0AE
:1025300044E050E00E940201009709F009C1809137
:10254000F301813019F58091FE018830F9F4E091B2
:10255000AE05F091AF05309719F086EF91E009953F
:102560000E94E40F1092FE0180910002883F28F043
:10257000809101028F5F8093010280910002885F49
:1025800080930002CE010E94A80DE2C00E94BC14FC
:10259000882351F08091F301813131F4CE010E9402
:1025A000C114882309F0D4C0C633D10528F4809122
:1025B000F301863009F0CCC0809100028B3009F025
:1025C000BEC086EF91E069E875E044E050E00E940B
:1025D0000201009709F0BCC080910B02382F82FFE6
:1025E00013C0E091B005F091B105309759F080919A
:1025F000010282958695877063E040E050E020E01C
:1026000030E0099585E090C09091EC0180E0209148
:10261000ED01022F10E0082B192B80910A02482FA0
:1026200050E0E4E055954795EA95E1F7CA01880F37
:10263000991F880F991F081B190B0451104017FF91
:1026400002C000E010E08091AA05823079F531FFE8
:1026500021C034FF1FC080E090E060E00E9429109C
:1026600088E180930B02E091B205F091B3053097B9
:1026700019F420E030E007C08091FF018295869533
:10268000877009959C0183E08093AA05C9010E9487
:102690000C105EC081E08093AA0534FF03C080E087
:1026A00090E002C0C801019664E046C0833081F525
:1026B0000115110579F1E091B005F091B105309760
:1026C00049F1440F551F440F551FCE0108974E5D29
:1026D0005F4F8417950708F4AC01C801840F951F5C
:1026E000C817D90710F0980103C09E01241B350BB1
:1026F0008091010282958695877060E009958091AE
:102700008E05882319F0C80168E016C0C80108C00A
:102710008530F1F030FF0BC08330D1F0C801019655
:1027200069E00E94291086E08093AA0511C0011576
:10273000110571F0C80160E00E94291009C0809164
:10274000990190919A01BE010E9473109C0102C0F0
:1027500020E030E0C901DF91CF911F910F91FF90F0
:10276000EF90DF900895CA32D10508F0D0CEF0CFB7
:10277000CF92DF92EF92FF920F931F93DF93CF934D
:10278000CDB7DEB728970FB6F894DEBF0FBECDBF2A
:1027900022E132E03E832D8338872F839091BC0560
:1027A000891709F08FC01C821B8287ED91E09A8304
:1027B00089834091C3055091C40541155105A9F580
:1027C0008DB79EB70C970FB6F8949EBF0FBE8DBF06
:1027D000EDB7FEB73196CE010196ADB7BEB71296F2
:1027E0009C938E9311978CE591E0938382838091E3
:1027F000BD059091BE05958384838091C705909116
:10280000C805978386838091BF059091C005918705
:1028100080878091C1059091C205938782870E942D
:10282000DC078DB79EB70C9648C02091C10530914A
:10283000C205E090BD05F090BE050091BF05109166
:10284000C0052115310519F06BE871E004C06EE890
:1028500071E024EE30E0DA010D900020E9F76D011F
:102860000894C108D108C41AD50A8DB79EB74097FD
:102870000FB6F8949EBF0FBE8DBFEDB7FEB7319671
:10288000CE010196ADB7BEB712969C938E93119769
:1028900085EE90E093838283F582E482178306833A
:1028A0003187208773876287D586C4865787468796
:1028B0000E94DC078DB79EB740960FB6F8949EBF76
:1028C0000FBE8DBF2F8138858D819E81281B390BCE
:1028D000C90128960FB6F894DEBF0FBECDBFCF91C9
:1028E000DF911F910F91FF90EF90DF90CF900895AF
:1028F0000F931F93CF93DF9389019091BC058917A4
:1029000059F0E091C505F091C60584E060E070E003
:1029100040E050E009952AC0662341F52D3031058D
:1029200028F1C091C505D091C6052097F9F04B510B
:102930005E4F8FE891E0BA0143E050E00E941F0132
:102940009C0180E0232B09F081E060910A0270E095
:1029500024E0759567952A95E1F7660F771F660F56
:10296000771F6E5D7F4FA801FE01099580E0DF9122
:10297000CF911F910F9108958091F105811181E010
:102980000895CF92DF92EF92FF920F931F93CF9310
:10299000DF93C9ECD5E030E0CC24DD2429C02A81C6
:1029A0004B818091000290E0042F10E08017910786
:1029B000D9F4909101029217B9F48C818823A1F087
:1029C0002091030230E028503040F0900202EE24C3
:1029D0002E0D3F1DE881F981892F942F66EF71E05C
:1029E00046E052E0099531E00894C11CD11C2596BF
:1029F0008091F10590E0C816D9068CF2832FDF9103
:102A0000CF911F910F91FF90EF90DF90CF9008959D
:102A10000F931F93CF93DF938C01C0E0D0E0F801B8
:102A2000EC0FFD1F84E295E060814AE050E00E94D7
:102A30007305C33029F084E295E06EE20E94BC0485
:102A40002196C430D10559F7DF91CF911F910F9195
:102A50000895EF92FF920F931F939C017B0104E274
:102A600015E0C801B9010E948505C7010E9408153B
:102A7000C8010E94C4041F910F91FF90EF90089528
:102A8000DC01FB0186E001900D928150E1F7089591
:102A90009C01FB0180819181A281B381F901808336
:102AA0009183A283B3830895782F8CB581608CBD08
:102AB00065B121E030E040E050E00090B60104C094
:102AC000220F331F441F551F0A94D2F7522F822F13
:102AD0008095862385B99EBD0DB407FEFDCF8EB5CA
:102AE0007EBD0DB407FEFDCF4EB5382F20E085B179
:102AF000582B55B98CB58E7F8CBD50E0422B532B93
:102B0000CA010895E8980E945415E89A089580E053
:102B100090E00E94541580914206853009F054C01F
:102B200080E090EB0E945415282F80914406882362
:102B300071F490914306992351F080914406E82F57
:102B4000F0E0EC50FA4F90838F5F809344068091C1
:102B50004406E82FF0E0EC50FA4F20838F5F80931B
:102B600044068091F2059091F3058227282F229543
:102B70002827022E269526952025022E26952025EB
:102B80002770082E892F269507942795902D822748
:102B900006942795902582279093F3058093F2055C
:102BA0008091F6052091440690E0049630E082176B
:102BB00093072CF080914406873408F46DC08DE0B3
:102BC00092E80E94541508958091420687FF2EC016
:102BD000E091F605809142068F5F80934206815016
:102BE000ED5FE80FF0E0EC50FA4FE0818091F205E4
:102BF0009091F3058E27282F22952827022E2695BF
:102C000026952025022E269520252770082E892F0F
:102C1000269507942795902D822706942795902531
:102C200082279093F3058093F20530C0809142068D
:102C30008F5F809342068150833019F184302CF4E9
:102C4000882399F0813009F516C0893019F08A304F
:102C5000E1F402C0EDE21AC0E09143069091F6055E
:102C60008EEF891B8093420611C08091F2059091EE
:102C7000F305E82F0BC08091F2059091F305E92F41
:102C800005C08DE092E80E945415EAEA8E2F90E08C
:102C9000805098440E9454150895809142068530D2
:102CA00009F042C08091F6052091440690E0049618
:102CB00030E08217930724F0809144068734A0F116
:102CC00084E0809342068091F605833430F081E001
:102CD00090E09093F3058093F2058091F50586FFCF
:102CE00012C080914106282F30E0C9018F71907089
:102CF0004F9749F08091F50590E0822793278F71D7
:102D00009070892B89F48091F2059091F305892BBD
:102D100009F044C0E0913F06F0914006309709F475
:102D20003DC080E0099546C080914206843011F094
:102D300080E008951092F6058091F6058093440690
:102D40008FEF9FEF9093F3058093F2052091430658
:102D50002223D9F08227282F22952827022E269574
:102D600026952025022E269520252770082E892FAE
:102D7000269507942795902D8227069427959025D0
:102D800082279093F3058093F20585E080934206B5
:102D90008DED92E80E94541580E008958FEF9FEF2B
:102DA000AFEFBFEF80933B0690933C06A0933D06A8
:102DB000B0933E0681E0089580914206853099F4F3
:102DC00080914406882379F480E090E00E94821587
:102DD00090FD09C08DE092E80E94821584E0809306
:102DE000420681E0089580E00895982F86FD05C091
:102DF000907E809141068F71980F9093F505E09138
:102E00003F06F0914006309711F081E009958FEF71
:102E10009FEF9093F3058093F2058091F2059091D6
:102E2000F305209143068227282F22952827022E7A
:102E3000269526952025022E269520252770082EDA
:102E4000892F269507942795902D822706942795FC
:102E5000902582279093F3058093F20586E0809376
:102E600042068DE392E80E94541508951F93182F8F
:102E70004093F60527EF35E0C90150E00E940F01AD
:102E8000812F0E94F5161F9108950F931F93CF93E2
:102E9000DF93182FEB01042F02C00E944D160E94F1
:102EA000DC168823D1F3812FBE01402F0E943617F4
:102EB000DF91CF911F910F91089525B181E090E0AE
:102EC000A0E0B0E00090B60104C0880F991FAA1FCF
:102ED000BB1F0A94D2F7282B25B924B1822B84B9C1
:102EE0008AE061E00E94D3068AE061E00E949406D5
:102EF0008BE061E00E9494068CE060E00E94940602
:102F00008DE061E00E94940680E58CBD8DB5816006
:102F10008DBD82E060E00E94940682E061E00E9444
:102F2000D30608951F93162F8093410640934306BE
:102F30000E945D1780E090E00E94541585E092E8C1
:102F40000E94541580E098EB02C080E090E00E945F
:102F5000541582E00E942707892BB9F3812F90E056
:102F600074E0880F991F7A95E1F7876C90680E944A
:102F7000541580E496EA0E94541586E096EC0E946F
:102F8000541582EA94E90E9454158CEA92EC0E944E
:102F9000541510914306112341F083E89AEC0E94E6
:102FA0005415812F90E09E6C06C08BE89AEC0E942D
:102FB00054158DE29EEC0E94541583E894EC0E9417
:102FC000541580E598E90E94541587E79CEC0E940F
:102FD000541580E090EE0E94541580E098EC0E9419
:102FE000541589E490EC0E94541584E080934206C5
:102FF0008091410690E08F719070892B41F080E0C4
:1030000067E875E140E050E00E940E1803C080E0E0
:103010000E943118809141061F910895823000F579
:10302000E82FF0E0EE0FFF1FEB5BF94F7183608339
:10303000882319F08130A1F408C0809169008C7F49
:10304000842B80936900E89A089580916900440F69
:10305000551F440F551F837F842B80936900E99A85
:103060000895823080F4882319F0813021F402C061
:10307000E89801C0E998E82FF0E0EE0FFF1FEB5B46
:10308000F94F1182108208951F920F920FB60F927E
:1030900011242F933F934F935F936F937F938F935D
:1030A0009F93AF93BF93EF93FF93809145069091C9
:1030B0004606892B29F0E0914506F09146060995D0
:1030C000FF91EF91BF91AF919F918F917F916F9100
:1030D0005F914F913F912F910F900FBE0F901F90D6
:1030E00018951F920F920FB60F9211242F933F93B2
:1030F0004F935F936F937F938F939F93AF93BF9300
:10310000EF93FF938091470690914806892B29F011
:10311000E0914706F09148060995FF91EF91BF9124
:10312000AF919F918F917F916F915F914F913F915F
:103130002F910F900FBE0F901F901895629FD00196
:10314000739FF001829FE00DF11D649FE00DF11D62
:10315000929FF00D839FF00D749FF00D659FF00D11
:103160009927729FB00DE11DF91F639FB00DE11DFE
:10317000F91FBD01CF0111240895AA1BBB1B51E10A
:1031800007C0AA1FBB1FA617B70710F0A61BB70BD7
:10319000881F991F5A95A9F780959095BC01CD017C
:1031A0000895A1E21A2EAA1BBB1BFD010DC0AA1F88
:1031B000BB1FEE1FFF1FA217B307E407F50720F0A0
:1031C000A21BB30BE40BF50B661F771F881F991F1B
:1031D0001A9469F760957095809590959B01AC0164
:1031E000BD01CF010895EE0FFF1F0590F491E02D72
:0631F0000994F894FFCFE2
:1031F6000A3E3E3E2052455100626172003C3C3C14
:10320600207265706C792000206D73000A5B67651B
:103216007444484350616E64444E535D0046616990
:103226006C656420746F20616363657373204574F5
:103236006865726E657420636F6E74726F6C6C6510
:10324600720044484350206661696C6564004D799C
:103256002049503A200047572049503A2000444E12
:10326600532049503A2000444E53206661696C65EC
:1032760064005365727665723A20000D0A000032CA
:103286003030007469692D303150004172647569BF
:103296006E6F2D3030003703010306FF63825363E0
:1032A60035010100010A0200000000FC03920492AD
:1032B60003C303A303EC03FFFFFFFFFFFFFFFFFFB3
:0C32C600FFFFFF00000000AC0E920400AF
:00000001FF
