:100000000C94DF000C942A150C9457150C940701DE
:100010000C9407010C9407010C9407010C94070140
:100020000C9407010C9407010C9407010C94070130
:100030000C9407010C9407010C9407010C94070120
:100040000C9477130C9407010C949D160C94EB16EA
:100050000C9407010C9407010C9407010C94070100
:100060000C9407010C940701676F6F676C652E6332
:100070006F6D002F666F6F2F0000010800060400EF
:1000800001450000820000400020504F53542024BE
:100090004620485454502F312E300D0A486F737447
:1000A0003A2024460D0A2446245341636365707444
:1000B0003A202A2F2A0D0A436F6E74656E742D4CF8
:1000C000656E6774683A2024440D0A436F6E746548
:1000D0006E742D547970653A206170706C6963613B
:1000E00074696F6E2F782D7777772D666F726D2D0F
:1000F00075726C656E636F6465640D0A0D0A245336
:1001000000474554202446245320485454502F314E
:100110002E300D0A486F73743A2024460D0A41634D
:10012000636570743A20746578742F68746D6C0D13
:100130000A0D0A00E30004FA0001000000010104B6
:1001400002000302048A050506C30B2019421E2C77
:1001500025802E882F2D370038003C8F3D106F20D2
:100160000000000000240027002A000000000025F5
:100170000028002B000000000023002600290004B6
:10018000040404040404040202020202020303033E
:100190000303030102040810204080010204081038
:1001A00020010204081020000000070002010000E6
:1001B000030406000000000000000000571811248E
:1001C0001FBECFEFD8E0DEBFCDBF11E0A0E0B1E0B1
:1001D000E4E1F2E302C005900D92A43EB107D9F725
:1001E00016E0A4EEB1E001C01D92A732B107E1F71D
:1001F00011E0CEEBD1E004C02297FE010E94041969
:10020000CC3BD107C9F70E948D160C9408190C94A9
:100210000000FB01DC0102C005900D9241505040EE
:10022000D8F70895FB01DC0104C08D91019080197D
:1002300021F441505040C8F7881B990B0895FB01E9
:10024000DC0101900D920020E1F70895FB01DC0133
:100250004150504030F08D910190801919F40020E8
:10026000B9F7881B990B0895FA01CF93FF93EF9389
:10027000223044F1253234F5C22FE894CA3049F4D3
:1002800097FB3EF490958095709561957F4F8F4FC9
:100290009F4F2C2F332744275527FF93EF930E941E
:1002A000E018EF91FF91605D6A330CF0695D619336
:1002B000B901CA01605070408040904051F716F477
:1002C000CDE2C19310828F919F91CF910C946801E0
:1002D000DC01FC01672F71917723E1F7329704C0AD
:1002E0007C916D9370836291AE17BF07C8F3089538
:1002F0000E94A0080E94150C0E94BF132091A00428
:100300003091A1044091A2045091A30428573C4E7F
:100310004F4F5F4F2617370748075907D0F40E9401
:10032000BF136093A0047093A1048093A2049093E0
:10033000A30485E096E060E071E00E947A1683E70E
:1003400090E069E071E048E650E02AEA31E00E947E
:10035000BB0A0895EF92FF920F931F937B0105E074
:1003600016E0C8016DE071E00E9477160E94BF138D
:10037000AB01BC018091A0049091A104A091A204C2
:10038000B091A304481B590B6A0B7B0BC8012AE0F0
:1003900030E00E945616C80168E171E00E947A16AA
:1003A00084EE91E0E80EF91EC801B7010E947A16AA
:1003B0001F910F91FF90EF900895EF92FF920F938E
:1003C0001F93DF93CF9300D0CDB7DEB785E061E018
:1003D0000E94611486E061E00E94611485E061E0A2
:1003E0000E94A01486E060E00E94A0148AE062E00F
:1003F00042ED20E436E00E94081000E010E07E01AB
:100400000894E11CF11C1A83098380E0B70142E0E3
:100410000E94F00F64E670E080E090E00E94CD134F
:100420000F5F1F4F0A30110571F786E061E00E94EF
:10043000A01485E096E040E855E260E070E00E949C
:10044000261785E096E06CE171E00E947A168CEB4D
:1004500092E063E971E048E00E946406882351F469
:1004600085E096E06DE271E00E947A1686E060E039
:100470000E94A0140E943105882351F485E096E083
:1004800062E571E00E947A1686E060E00E94A014A6
:100490008EE591E06AED74E00E94A00786E691E0A7
:1004A00062EE74E00E94A0078EE691E06AEE74E0CE
:1004B0000E94A00785E060E00E94A01488E690E01A
:1004C00060E00E944305882351F485E096E067E7E9
:1004D00071E00E947A1686E060E00E94A01482E833
:1004E00091E06EEE74E00E94A00788E79CEEAFEF0B
:1004F000BFEF8093A0049093A104A093A204B093B3
:10050000A3040F900F90CF91DF911F910F91FF9057
:10051000EF9008958B9708F454C0809107028334BC
:1005200009F04FC080910E02823009F04AC020913C
:1005300012023091130240911402509115028091E1
:10054000A5049091A604A091A704B091A80428172F
:1005500039074A075B07A9F59091F40180E02091E3
:10056000F501AC01420F511D9A012C503140EEEFC4
:10057000F2E01EC04533B9F48281853031F0863017
:1005800081F08230F1F482E008958091A4048330F8
:1005900031F08330B0F08550823098F414C083E09D
:1005A000089581E00895818190E00196E80FF91F98
:1005B00040814F3F31F0CF018E5F92408217930709
:1005C000C8F280E0089584E008950F931F93CF93BD
:1005D000DF93082F162F0E946108882309F4EFC0CB
:1005E000C4EED1E08AE191E0FE019C01119221501C
:1005F0003040E1F784E490E06AED74E043E450E0D9
:100600000E94180BCE01069664ED74E00E94B707B5
:10061000CE016FEB71E00E94B70782E88093F5018D
:1006200081E18093FB01112329F0CE014E966FEBFF
:1006300071E004C0CE014E9666EE74E00E94BF07E2
:1006400081E080930E0280930F0286E08093100277
:10065000109211028091A5049091A604A091A70484
:10066000B091A8048093120290931302A0931402F5
:10067000B09315021092170210921602112319F46A
:1006800080E090E002C080E890E0909319028093AF
:1006900018028AE292E064ED74E00E94B707AAEFC4
:1006A000B2E0EFEAF1E002C081918D9331E0E33BEB
:1006B000F307D1F785E38093FE0291E09093FF0268
:1006C000009300038DE38093010387E0809302038E
:1006D00090930303A4E0B3E0E4EDF4E002C0819161
:1006E0008D9384E0EA3DF807D1F78CE080930A030C
:1006F0008BE093E09093B2048093B104A9E9B1E058
:10070000FD0101900020E9F73197EA1BFB0BE09314
:100710000B03EC012196F0E09F012A0F3B1F02C062
:100720008D918993A217B307D9F7DF01A45FBC4F5E
:10073000B093B204A093B104033049F5FD0182E304
:10074000819384E011968C933196EF01AAEDB4E089
:1007500002C08D91899324E0AE3DB207D1F786E3C4
:10076000848384E085833696F093B204E093B104E9
:10077000EF01A6EEB4E002C08D91899334E0AA3E69
:10078000B307D1F73496F093B204E093B10420910B
:10079000B1043091B204D901E9EAF1E002C08191DB
:1007A0008D9381E0EF3AF807D1F7C901069690934F
:1007B000B2048093B1048E5092400E94E60BDF9108
:1007C000CF911F910F9108957F928F929F92AF9238
:1007D000BF92CF92DF92EF92FF920F931F93CF932E
:1007E000DF930E9430080E94BF135B016C0180E61A
:1007F0009AEEA0E0B0E0A80EB91ECA1EDB1E992436
:10080000939404E0802E12E0712EF8C08091A4042D
:10081000813061F00E94A008EC01009709F4EEC05D
:100820000E94150C892B09F0E9C00FC1C0E0D0E08F
:100830008091A404833009F4C0C0843030F4813046
:1008400071F0823009F0D8C042C0853009F4BDC0D3
:10085000853008F4D3C0863009F0CEC0B6C08AED2A
:1008600094E069EB71E00E94BF0786EE94E069EBCB
:1008700071E00E94BF070E94BF137B018C0160934F
:10088000A5047093A6048093A7049093A8040E94E3
:10089000BF138701FF24EE24E60EF71E081F191F61
:1008A000E092A504F092A6040093A7041093A80474
:1008B00081E061E00E94E5027092A4041092A90414
:1008C0001092AA041092AB041092AC0497C0CE010F
:1008D0000E948A02823009F08FC08AED94E06EE1B6
:1008E00072E00E94BF07EEEFF2E08E010C511E4F46
:1008F000DF011196E180ED01219680818630A1F023
:10090000873030F4813051F0833009F049C009C09C
:10091000833369F0863309F043C03DC08EED94E027
:100920003CC082EE94E039C08AEE94E036C02B8160
:1009300011966C9170E080E090E0962F88277727E1
:100940006627620F711D811D911D298130E040E0F5
:1009500050E0A90133272227620F731F841F951FC0
:100960002A8130E040E050E0542F432F322F2227DD
:10097000620F731F841F951F28EE33E040E050E0A4
:100980000E94AD186093AD047093AE048093AF04E1
:100990009093B00405C086EE94E0BE010E94BF07AC
:1009A000FE01EE0DF11DE017F10708F4A1CF83E081
:1009B00060E00E94E50283E01CC0CE010E948A0232
:1009C0008330D1F48092A40407C0CE010E948A0231
:1009D000843069F48093A4040E94BF136093A90437
:1009E0007093AA048093AB049093AC0407C0813049
:1009F00029F48093A40402C09092A4048091A404DA
:100A0000843041F10E94BF136A157B058C059D055A
:100A100008F50E946108882389F3F8CE8091E204EA
:100A2000882321F082EE94E00E94760B81E0DF9132
:100A3000CF911F910F91FF90EF90DF90CF90BF90DB
:100A4000AF909F908F907F9008958091FB018131AE
:100A5000A9F6EECE0E942B088091DA048823F1F6E5
:100A6000E6CF8091D904982F92959F709F5B9093C9
:100A7000A1018F708F5B8093A20181E08093A40419
:100A80000E94E4030895FF920F931F93CF93DF9387
:100A9000182F092FF62E0E94BF13EB010E94610848
:100AA000882329F00E94B50A882309F4DBC00E943C
:100AB000A0080E94150C0E94BF136C1B7D0B605395
:100AC000754760F3C8C088E098E0A8E0B8E080937C
:100AD000EA049093EB04A093EC04B093ED048091AE
:100AE000B30490E0906E6AEE74E045E350E00E943B
:100AF000180BAEE0B2E08CE0FD0111928A95E9F7A7
:100B0000812F902FFC01CF011C9630E0FF2019F0BF
:100B1000FC01208102C0FC01249101962E3241F09B
:100B2000222331F03F5FFD01E30FF11D2083EECF63
:100B3000FD013193DF01A30FB11D222331F7FD0128
:100B4000119211961C92DF01119641E04183FD0143
:100B5000319611961C92418386ED24EE31E0821B82
:100B600032968E0F80930E029091B30490930F02F1
:100B7000409310024093130290E00E94E60B0E9403
:100B8000BF138B0161C00E94BF13601B710B6053C8
:100B9000754708F060C00E94A008EC01009709F4B6
:100BA00053C00E94150C892B09F04EC0C634D105E4
:100BB00008F44AC080910702853309F045C080914E
:100BC0000802803E09F040C0909109028091B30470
:100BD0009817D1F580910F028917B1F58091110214
:100BE00090E08F709070892B79F580910E02E82F3C
:100BF000F0E0E25FFD4F9E012C513E4F8081807CF2
:100C000039F0329609C08081882311F4319604C0EE
:100C10003196E217F307B8F3CF010E96281739077C
:100C200098F08181813051F48185843039F43A968D
:100C30008EEE94E0BF010E94BF0706C0818590E060
:100C40000A96E80FF91FDACF8091EE04882309F4A1
:100C50009ACF81E001C080E0DF91CF911F910F9189
:100C6000FF9008951092EE041092EF041092F00499
:100C70001092F1048091B3048F5F8093B30480914C
:100C8000EA04882309F02BCF1ECFCF93DF93EC012A
:100C90009B018A30910548F06AE070E00E94CC1810
:100CA000CB01B9010E9445069C01CE016AE070E0CB
:100CB0000E94CC18805DF9018193D90111961C9294
:100CC000CF01DF91CF910895AF92BF92CF92DF9283
:100CD000FF920F931F93CF93DF938C01EB01F42EC0
:100CE00038E341E050E060E070E018C0832F90E00E
:100CF000FC01B3E0F595E795BA95E1F7EC54FB4FAD
:100D0000877090705A016B0104C0AA0CBB1CCC1CEC
:100D1000DD1C8A95D2F720812A292083315031F7B2
:100D200084ED94E0BE010E94B707C80164ED74E051
:100D30004F2D0E948509DF91CF911F910F91FF9058
:100D4000DF90CF90BF90AF900895CF92DF92EF9257
:100D5000FF920F931F93DF93CF93CDB7DEB7EB8452
:100D6000FC84CD84DE84DE011F9601C0D801F6012B
:100D70008491882309F4BAC00894C11CD11C843220
:100D800009F097C0F6010894C11CD11C84918634E7
:100D900009F45DC0873434F4843469F0853409F093
:100DA00088C06CC08C34B9F1833509F443C08834F1
:100DB00009F07FC00BC08D010E5F1F4FF7016681E8
:100DC00077818D919C910E9445067EC02C91822F47
:100DD000992787FD909514E0959587951A95E1F7E9
:100DE0008F702F702A300CF0295F8A300CF0895FE9
:100DF0008D010E5F1F4FF701A681B781805DFD0158
:100E00008193205D11962C933196D7011796FC9310
:100E1000EE931697ABCF8D010C5F1F4F6D917D91B7
:100E20008D919C91F701468157812AE030E00E9424
:100E300034014AC08D010E5F1F4F6D917C91D70127
:100E400016968D919C9117970E941F013DC08D01B0
:100E50000E5F1F4F2D913C910AC0D7011696ED9160
:100E6000FC91179781931796FC93EE931697F901CF
:100E70002F5F3F4F8491882381F778CF8D010E5FDC
:100E80001F4F2D913C910AC0D7011696ED91FC9110
:100E9000179781931796FC93EE931697F999FECFC7
:100EA00032BD21BDF89A80B52F5F3F4F882361F78F
:100EB0005DCFF70126813781F90181939F01F70109
:100EC000378326838D0152CFD70116968D919C9141
:100ED0001797FC0101900020E9F73197E81BF90B07
:100EE0008E0F9F1FF7019783868340CFCF91DF91AD
:100EF0001F910F91FF90EF90DF90CF9008950F9387
:100F00001F93CF93DF938C01C0E0D0E0F801EC0F8A
:100F1000FD1F85E096E060814AE050E00E94651682
:100F2000C33029F085E096E06EE20E94AE1521966E
:100F3000C430D10559F7DF91CF911F910F910895DA
:100F4000EF92FF920F931F939C017B0105E016E047
:100F5000C801B9010E947716C7010E947F07C80126
:100F60000E94B6151F910F91FF90EF900895DC013C
:100F7000FB0186E001900D928150E1F708959C01FC
:100F8000FB0180819181A281B381F90180839183EA
:100F9000A283B38308958091F40461E00E94A014B9
:100FA00078940895FF920F931F93082F162FF42E15
:100FB000F8948091F40460E00E94A0141F71102B3B
:100FC0001EBD0DB407FEFDCFFEBC0DB407FEFDCF68
:100FD0000E94CB071F910F91FF9008951F93182F28
:100FE000282F30E0207630708091F50490E02817AB
:100FF000390799F080EA6FE143E00E94D207412F60
:1010000040764093F50450E085E0559547958A95E4
:10101000E1F780E86FE10E94D2071F9108950F93D6
:101020001F93182F062F0E94EE0780E4612F402F98
:101030000E94D2071F910F9108950F931F93182FAD
:10104000072F0E940F08812F8F5F602F0E940F08CB
:101050001F910F91089588E360EB0E940F08089597
:1010600088E361EB0E940F0808950F931F93182FD8
:10107000062FF8948091F40460E00E94A014802F61
:101080008F71812B8EBD0DB407FEFDCF1EBC0DB43C
:1010900007FEFDCF07FF04C01EBC0DB407FEFDCF49
:1010A0001EB50E94CB07812F1F910F9108951F93AA
:1010B000182F0E94EE0780E0612F0E9435081F91D3
:1010C000089584ED61E10E940F0882ED61E00E94C5
:1010D0000F088AEE0E94570880FDFBCF82ED60E08A
:1010E0000E940F0889ED0E94570890E09695879519
:1010F00096958795817008950F931F93CF93DF93F3
:10110000EC018B01F8948091F40460E00E94A0143B
:101110008AE38EBD0DB407FEFDCF09C01EBC0DB421
:1011200007FEFDCF8EB5F80181938F01219720979F
:10113000A9F70E94CB07DF91CF911F910F910895DE
:101140000F931F93DF93CF9300D000D000D0CDB783
:10115000DEB789E30E945708882319F400E010E005
:1011600048C06091F6047091F70480E00E941D0869
:1011700086E090E0BE016F5F7F4F0E947C0889810E
:101180009A819093F7048093F6042B813C81E0913F
:10119000F204F091F3048D8187FD03C000E010E0BC
:1011A0000EC0245030408F010150104020173107ED
:1011B00008F48901C80164EE71E00E947C08F8011E
:1011C000EC51FE4F10826091F6047091F7048CE0B0
:1011D0006130780724F08CE06FEF7BE003C0615052
:1011E00070408CE00E941D0880E86EE140E40E949F
:1011F000D207C80126960FB6F894DEBF0FBECDBF4A
:10120000CF91DF911F910F9108950F931F93CF936B
:10121000DF938C01EB01F8948091F40460E00E946C
:10122000A0148AE78EBD0DB407FEFDCF08C08881EB
:101230008EBD0DB407FEFDCF219601501040011563
:101240001105A9F70E94CB07DF91CF911F910F9154
:101250000895CF93DF93EC010FC08CE10E945708F3
:1012600081FF0AC080E86FE140E80E94D20780EA6F
:101270006FE140E80E94D20780E06FE10E943508EC
:1012800083FDEBCF82E060E07CE00E941D08BE01A0
:101290006050744F86E00E941D088AE760E040E0DD
:1012A0000E94D207CE0164EE71E00E94050980E839
:1012B0006FE148E00E94D207DF91CF9108958AE064
:1012C00061E00E9461148AE061E00E94A0148BE05A
:1012D00061E00E9461148DE061E00E9461148CE085
:1012E00060E00E9461148BE061E00E94A0148BE03A
:1012F00060E00E94A0148DE060E00E94A01480E5F0
:101300008CBD8DB581608DBD08951F93CF93DF9304
:10131000EB01142F9093F3048093F2040CB406FCB9
:1013200002C00E945F091093F404812F61E00E94C3
:1013300061140E94CB078FEF60E04FEF0E94D2074D
:1013400062E070E080E090E00E94CD1380E06DE10B
:101350000E9435088823D1F31092F7041092F60406
:1013600088E060E070E00E941D088CE060E070E0C2
:101370000E941D088AE06FEF7BE00E941D0884E058
:1013800060E07CE00E941D0886E06FEF71E10E9442
:101390001D080E94300888E26FE370E30E941D0878
:1013A00080E369EF77EF0E941D0880EC6DE00E94FA
:1013B0000F0881EC60E00E940F0880E862EC42E3D5
:1013C0000E94D20786EC62E17CE00E941D0884EC5A
:1013D00062E10E940F088AEC6CED75E00E941D0826
:1013E00084EE68810E940F0885EE69810E940F08D3
:1013F00082EE6A810E940F0883EE6B810E940F08C3
:1014000080EE6C810E940F0881EE6D810E940F08B2
:1014100084ED60E10E940F0886ED60E071E00E94BB
:101420001D088AEE0E94570880FDFBCF8FE10E94C5
:10143000EE0780E86BE140EC0E94D20780E86FE1A4
:1014400044E00E94D20782E70E945708863008F0E5
:101450008F5FDF91CF911F910895FC01A681B78125
:101460006D93B783A68381E090E00895DF92EF92B9
:10147000FF920F931F93CF93DF93D82E862FBA013D
:10148000213041F4675F7F4F9B0140E050E069509D
:1014900070400EC0223029F020E030E040E050E003
:1014A00007C0625070409B0140E050E06E5F7F4F8C
:1014B000E82EFF2484EE91E0E80EF91E8B01E7018F
:1014C0000FC0F881E0E0898190E08E2B9F2BA0E097
:1014D000B0E0280F391F4A1F5B1F229602501040B0
:1014E0000230110570F7CB018E7FD701A80FB91F0D
:1014F0006817790779F08C9190E0A0E0B0E0BA2FFE
:10150000A92F982F882702C040E050E0280F391FEC
:101510004A1F5B1FCA01AA27BB270097A105B10577
:1015200099F7C90180959095ED2DF0E0EC51FE4FB3
:1015300090838183DF91CF911F910F91FF90EF9066
:10154000DF9008951092FC011092FD0180E48093D9
:10155000F8011092F9018093FA0188E16EE044E10C
:1015600050E020E00E94360A08958091F8048695A4
:1015700080958170089590930D0580930C0570936C
:1015800017056093160550930F0540930E051092B2
:101590001305109212053093150520931405309110
:1015A000B3012091B40189E99FE0909300058093F5
:1015B000FF0480EE9EE09093020580930105209346
:1015C000FB043093FC0481E08093F9048091FA04D9
:1015D0008F5F87708093FA0480930B0508950F93B3
:1015E0001F93BC0104EE11E0C8010E94B707C801B7
:1015F000069664ED74E00E94B7071F910F9108955D
:10160000EF92FF920F931F937B010E94EF0A02E07B
:1016100012E0C801B7010E94BF07C80104976AED34
:1016200074E00E94BF071F910F91FF90EF90089503
:10163000CF92DF92EF92FF920F931F936C018B0179
:101640007A0185E095E00E94000BF8018081807F9F
:10165000803E31F484EE91E065EC71E00E94B707C2
:1016600088E08093F0011092F10182EF91E061E84F
:1016700070E049E050E00E9409011092F40181E11C
:101680008093FB01F0920802E0920902D0920602D8
:10169000C092070210920A0210920C0210920D02E0
:1016A0001F910F91FF90EF90DF90CF900895EF92F0
:1016B000FF920F931F930AEE11E0C8010E94EF0AF8
:1016C00074E1E72EF12CE00EF11EC8014896B70137
:1016D0000E94BF07C7016AED74E00E94BF070E9425
:1016E000A20A1F910F91FF90EF900895BC0181E035
:1016F0008093F80482EE94E00E94BF0708950F9350
:101700001F938C0188969093F4018093F5010E94B9
:10171000A20A1092160210921702045E1F4F82E373
:101720006AE1A80122E00E94360AC8014A960E9496
:1017300029091F910F910895CF93DF939C01862F64
:10174000806180931302643029F02115310511F472
:1017500021E030E090910802809106028093080217
:1017600090930602909109028091070280930902EA
:1017700090930702CDE0D2E08881A901480F511D66
:101780002C814C832883252F3327219752E0C930A1
:10179000D50791F71D861E8680E589871092F40192
:1017A00088E28093F5010E94570B84E08B871C86AA
:1017B00082E36AE14CE150E022E00E94360A86E3CF
:1017C00090E00E942909DF91CF9108950F931F9314
:1017D000DF93CF930F92CDB7DEB78C01045E1F4F1E
:1017E0001093F4010C511040802F845E8093F5011A
:1017F00089830E94A20A085F1F4F10930A02898101
:10180000845180930B02085F1F4F88E26AE1A801B0
:1018100021E00E94360AC8014A960E9429090F90C9
:10182000CF91DF911F910F910895DF92EF92FF9278
:101830000F931F93CF93DF93EC01009709F0B6C08D
:101840008091F8048570F1F18091B5019091B60115
:10185000892BC1F50E9461088823A1F185EC91E0F4
:101860000E94EF0A88E08093F00156E0F52EF09296
:10187000F10182EF91E069E770E048E050E00E94FA
:10188000090104E012E0D8011D92FA94E9F7C801B9
:101890000A9764ED74E00E94B707C801069662EEED
:1018A00074E00E94BF07C80104976AED74E00E94CB
:1018B000BF078091F80488608093F8048AE290E082
:1018C0000E9429098091B5019091B60101969093EB
:1018D000B6018093B5018091F904813009F060C2AE
:1018E0008091F80481FF5CC202E00093F9048091CA
:1018F000B7018F5F8093B7018F711091FA04129531
:10190000110F107E182BE090FB04D090FC0485E0B2
:1019100095E06EEE74E00E94000B48E0F42EF09229
:10192000F0011092F10182EF91E061E870E049E08E
:1019300050E00E9409018CE28093F50186E08093DB
:10194000FB010E94A20AE0920802D09209028BE0F9
:101950008093060210930702EAE0F2E0DF011D9295
:10196000FA94E9F78091B80180930C028D5F80931F
:10197000B80180E6809312020093130283E0809303
:101980001402109215021092160210921702109271
:1019900018021092190200931A0284E080931B022D
:1019A00000931C0286E280931D02B5C18932910525
:1019B00008F4F6C11091F001183009F0FCC18091D3
:1019C000F101863009F0F7C18AE092E06AED74E037
:1019D00044E050E00E941201009709F0ECC18091B0
:1019E000F901813029F58AEE91E00E94EF0A109208
:1019F000F80182E08093F90184E092E06AEF71E0FF
:101A00000E94B7078AEF91E064ED74E00E94B70787
:101A10008AE092E060E072E00E94BF0780E092E01E
:101A20006AED74E00E94BF078AE290E00E942909F3
:101A30008091F80483FFB4C11091F901123009F0CC
:101A4000AFC180E092E062EE74E044E050E00E94BA
:101A50001201009709F0A4C185E095E06AEF71E0FA
:101A60000E94B7071093F8049BC1183009F098C181
:101A70008091F101882309F093C18091F2018534AE
:101A800009F08EC182E092E06AED74E044E050E03B
:101A90000E941201009709F083C19091FB019130DF
:101AA00009F5809106028830E9F4E091FD04F09197
:101AB000FE04309719F08EEF91E009950E94570BC4
:101AC0001092060280910802883F28F08091090256
:101AD0008F5F8093090280910802885F80930802DB
:101AE000CE0122C1C633D10518F4963009F058C191
:101AF000209108022B3009F0B8C08EEF91E06EEE15
:101B000074E044E050E00E941201009709F048C1DF
:101B100080911302682F82FF13C0E091FF04F091BF
:101B20000005309759F0809109028295869587705B
:101B300063E040E050E020E030E0099585E08CC0B3
:101B40009091F40180E02091F501022F10E0082B24
:101B5000192B80911202482F50E034E0559547959B
:101B60003A95E1F7CA01880F991F880F991F081B42
:101B7000190B0451104017FF02C000E010E098015B
:101B80008091F904823079F561FF21C064FF1FC0A4
:101B900080E090E060E00E949C0B88E1809313025B
:101BA000E0910105F0910205309719F420E030E052
:101BB00007C08091070282958695877009959C01E0
:101BC00083E08093F904C9010E947F0BE9C081E0A2
:101BD0008093F90464FF03C080E090E002C0C80174
:101BE000019664E0DBC0833049F50115110549F128
:101BF000E091FF04F0910005309719F1440F551F53
:101C0000440F551FCE0108974E5D5F4F841795070F
:101C100008F4AC01C801840F951FC817D90710F04C
:101C2000980103C09E01241B350B80910902829507
:101C30008695877060E00995C8010AC0853009F46F
:101C4000AFC060FF0CC0833009F4AAC0C801019680
:101C500069E00E949C0B86E08093F904A1C0011505
:101C6000110509F49FC0C80198C04091B30130E04C
:101C70008091B40190E02817390709F091C0809154
:101C80000902841709F08CC080911302682F81FF2C
:101C90004EC01092F4018CE28093F5010E94570B24
:101CA00082E1809313029091080280910602809352
:101CB0000802909306029091090280910702809396
:101CC000090290930702EDE0F2E021E030E080812C
:101CD000A901480F511D44831082252F33273197C6
:101CE00052E0E930F50799F71586168611821282BF
:101CF0008091B801838314828D5F8093B80182E064
:101D0000818B84E0828B95E0938B148A80E68187B7
:101D1000938788E7848782E36AE140E250E022E02B
:101D20000E94360A8AE390E00E94290939C084FFA4
:101D300037C09091F40180E02091F50130E0282B2C
:101D4000392B80911202482F50E014E055954795A9
:101D50001A95E1F7CA01880F991F880F991F281B50
:101D6000390B2451304037FF02C020E030E030937F
:101D7000040520930305232B61F09A01220F331FE2
:101D8000220F331F2E5D3F4F2897C217D30740F015
:101D900009C060FF05C080E090E060E00E949C0BFD
:101DA00020E030E0C901DF91CF911F910F91FF90AA
:101DB000EF90DF900895CA32D10508F056CEF0CFEB
:101DC000CF92DF92EF92FF920F931F93DF93CF9307
:101DD000CDB7DEB728970FB6F894DEBF0FBECDBFE4
:101DE0002AE132E03E832D8338872F8390910B05C3
:101DF000891709F088C01C821B828FEC91E09A83BE
:101E0000898340911205509113054115510579F5CB
:101E10008DB79EB70A970FB6F8949EBF0FBE8DBFC1
:101E2000EDB7FEB73196CE010196ADB7BEB71296AB
:101E30009C938E93119781E091E0938382838091AC
:101E40000C0590910D0595838483809116059091E2
:101E500017059783868380910E0590910F059187D2
:101E600080870E94A5068DB79EB70A9647C08091CD
:101E700010059091110500910C0510910D056091D0
:101E80000E0570910F05009721F07C012BE831E0E1
:101E900003C02EE831E07901DA010D900020E9F766
:101EA0006D010894C108D108C41AD50A8DB79EB730
:101EB00040970FB6F8949EBF0FBE8DBFEDB7FEB72B
:101EC0003196CE010196ADB7BEB712969C938E9314
:101ED00011978AE890E09383828315830483778344
:101EE0006683E086F18633872287D586C486578746
:101EF00046870E94A5068DB79EB740960FB6F89408
:101F00009EBF0FBE8DBF2F8138858D819E81281B7E
:101F1000390BC90128960FB6F894DEBF0FBECDBFAE
:101F2000CF91DF911F910F91FF90EF90DF90CF90B5
:101F300008950F931F93CF93DF93890190910B0521
:101F4000891759F0E0911405F091150584E060E0DF
:101F500070E040E050E009952AC0662341F52D303D
:101F6000310528F1C0911405D09115052097F9F09D
:101F700043515E4F8FE891E0BA0143E050E00E9488
:101F800026019C0180E0232B09F081E06091120280
:101F900070E0F4E075956795FA95E1F7660F771FA5
:101FA000660F771F6E5D7F4FA801FE01099580E0E7
:101FB000DF91CF911F910F9108958AE195E00E94E2
:101FC00099119093190580931805809118059091A7
:101FD000190520E08F5F9F4F09F021E0822F0895BF
:101FE0000F931F93CF93DF93182FEB01042F02C0A1
:101FF0000E94DD0F0E94D1108823D1F3812FBE01F2
:10200000402F0E940B12DF91CF911F910F910895E5
:10201000BF92CF92DF92EF92FF920F931F93CF93D5
:10202000DF93C82ED62EB42EE90182E0681751F056
:1020300083E0681749F081E0681711F060E005C09F
:102040006BE203C066E501C06AE570E080E090E005
:1020500020E836E948E950E00E94AD187B018C0188
:102060006D2D70E080E090E024EC39E040E050E03D
:102070000E94AD189E0140E050E00E94AD18E60EAF
:10208000F71E081F191FC801B7010E94B410B092B3
:1020900067058C2D8F718093680564E170E080E0A6
:1020A00090E00E94CD1380916805882341F080E084
:1020B0006EEC72E143E050E00E94F41403C080E053
:1020C0000E9417150E94E210C09262058C2DDF91CC
:1020D000CF911F910F91FF90EF90DF90CF90BF9025
:1020E000089598E20EC0E8982A981EBC0DB407FE29
:1020F000FDCF8EB51EBC0DB407FEFDCF8EB52A9A5E
:10210000E89AE8982A989EBD0DB407FEFDCF8EB5DB
:102110001EBC0DB407FEFDCF8EB52A9AE89A8075D5
:1021200011F70895282FE8982A9881E08EBD0DB404
:1021300007FEFDCF8EB51EBC0DB407FEFDCF9EB5CC
:102140002A9AE89AE8982A9881E88EBD0DB407FE8D
:10215000FDCF8EB5937E922B9EBD0DB407FEFDCFB5
:102160008EB52A9AE89A089522E0660F771F881F95
:10217000991F2A95D1F729E03DE340E050E00E9405
:10218000E01886E0220F331F441F551F8A95D1F7B0
:10219000209363053093640540936505509366056D
:1021A000089580916E05853059F480916F058823DC
:1021B00039F484E080936E050E94921081E00895C6
:1021C00080E008952A9A229A2A9A84B18C6284B96E
:1021D00080E58CBD8DB581608DBD3FEA2AEA9FE226
:1021E000E8982A983EBD0DB407FEFDCF8EB52EBDF2
:1021F0000DB407FEFDCF8EB52A9AE89AE8982A9882
:102200009EBD0DB407FEFDCF8EB51EBC0DB407FEFE
:10221000FDCF8EB52A9AE89A8A3A11F73FEA25E56A
:102220009FE2E8982A983EBD0DB407FEFDCF8EB51B
:102230002EBD0DB407FEFDCF8EB52A9AE89AE89818
:102240002A989EBD0DB407FEFDCF8EB51EBC0DB401
:1022500007FEFDCF8EB52A9AE89A853511F7EEE391
:10226000F1E084918823A1F03196949131978068B0
:10227000E8982A988EBD0DB407FEFDCF8EB59EBDA1
:102280000DB407FEFDCF8EB52A9AE89A3296E9CFB3
:1022900090916705E8982A9880EB8EBD0DB407FEF3
:1022A000FDCF8EB59EBD0DB407FEFDCF8EB52A9A2B
:1022B000E89A20916305309164054091650550913D
:1022C0006605E8982A9887E88EBD0DB407FEFDCF15
:1022D0008EB5CA01AA27BB278EBD0DB407FEFDCF60
:1022E0008EB52A9AE89AE8982A9888E88EBD0DB4A7
:1022F00007FEFDCF8EB5BB27A52F942F832F8EBD54
:102300000DB407FEFDCF8EB52A9AE89AE8982A9870
:1023100089E88EBD0DB407FEFDCF8EB52EBD0DB480
:1023200007FEFDCF8EB52A9AE89A84E080936E0569
:102330000895AC0180916E05843021F0853009F05C
:1023400066C032C010921C0580911C0580936F05F9
:10235000209167058FEF9FEF8227282F229528274E
:10236000022E269526952025022E269520252770BB
:10237000082E892F269507942795902D822706945D
:1023800027959025822790936A058093690550933D
:102390006D0540936C0585E080936E050E94711079
:1023A00080E10E94921033C080911C0520916F053E
:1023B00090E0049630E08217930724F080916F0537
:1023C000883428F184E080936E050E9492108091F9
:1023D0001C05833430F081E090E090936A0580938F
:1023E000690580911B0586FF0DC0209168052F317E
:1023F00049F080911B0590E08F71907030E082175A
:10240000930729F42091690530916A0502C02FEFE6
:102410003FEFC9010895982F40931C0520E030E05C
:1024200050E00AC0F901E35EFA4FDB01A20FB31FCF
:102430008C9180832F5F3F4F241735079CF396FDC7
:1024400004C0907E80916805980F90931B052091A1
:1024500067058FEF9FEF8227282F22952827022ECE
:10246000269526952025022E269520252770082EB4
:10247000892F269507942795902D822706942795D6
:1024800090258227909319058093180590911C053B
:102490008EEF891B80936E050E9471108CE00E9464
:1024A0009210E8982A9885EA8EBD0DB407FEFDCFFC
:1024B0008EB51EBC0DB407FEFDCF8EB52A9AE89AE4
:1024C00040916C0550916D0568E230E861C0E89874
:1024D0002A986EBD0DB407FEFDCF8EB51EBC0DB49F
:1024E00007FEFDCF8EB52A9AE89A87FD51C08091EC
:1024F0006E0587FF2DC020911C0580916E059927E0
:1025000087FD9095FA01E20FF11DE80FF91F238175
:102510008091690590916A058227782F72957827B6
:10252000072E769576957025072E7695702577700F
:10253000082E892F769507947795902D87270694F6
:1025400077959025872790936A05809369050DC03C
:1025500080916E05882321F0813029F02AEA05C098
:102560002091690502C020916A05E8982A983EBD2D
:102570000DB407FEFDCF8EB52EBD0DB407FEFDCF09
:102580008EB52A9AE89A80916E058F5F80936E05CA
:1025900080916E0583300CF49ACF089580916E057A
:1025A000853009F07DC0E8982A9884E28EBD0DB48C
:1025B00007FEFDCF8EB51EBC0DB407FEFDCF8EB558
:1025C0002A9AE89A80936B05789448E2E8982A98CA
:1025D0004EBD0DB407FEFDCF8EB51EBC0DB407FE7B
:1025E000FDCF8EB52A9AE89A807581F380916F05A8
:1025F000882371F480916F05E0916C05F0916D0571
:10260000E80FF11D9091670590838F5F80936F05B0
:10261000E8982A981EBC0DB407FEFDCF8EB51EBCEF
:102620000DB407FEFDCF2EB52A9AE89A80916F056A
:10263000E0916C05F0916D05E80FF11D20838F5F2F
:1026400080936F058091690590916A058227282FF4
:1026500022952827022E269526952025022E26959E
:1026600020252770082E892F269507942795902DD1
:102670008227069427959025822790936A05809358
:10268000690580911C0520916F0590E0049630E06B
:10269000821793075CF180916F05883438F596CFE7
:1026A000E8982A9888E28EBD0DB407FEFDCF8EB55E
:1026B0001EBC0DB407FEFDCF8EB52A9AE89A83FFA3
:1026C00015C084E080936E050E949210E8982A98C5
:1026D00085EA8EBD0DB407FEFDCF8EB580E88EBDB8
:1026E0000DB407FEFDCF8EB52A9AE89A08951F9281
:1026F0000F920FB60F9211242F933F938F939F93B6
:10270000AF93BF938091740590917505A091760564
:10271000B0917705309178050196A11DB11D232F49
:102720002D5F2D3720F02D570196A11DB11D20934F
:1027300078058093740590937505A0937605B09302
:1027400077058091700590917105A0917205B09107
:1027500073050196A11DB11D8093700590937105BD
:10276000A0937205B0937305BF91AF919F918F9124
:102770003F912F910F900FBE0F901F9018958FB71C
:10278000F89420917405309175054091760550912B
:1027900077058FBFB901CA0108959B01AC017FB7CE
:1027A000F8948091700590917105A0917205B09197
:1027B000730566B5A89B05C06F3F19F00196A11D72
:1027C000B11D7FBFBA2FA92F982F8827860F911D83
:1027D000A11DB11D62E0880F991FAA1FBB1F6A953A
:1027E000D1F7BC012DC0FFB7F8948091700590918E
:1027F0007105A0917205B0917305E6B5A89B05C05F
:10280000EF3F19F00196A11DB11DFFBFBA2FA92FEF
:10281000982F88278E0F911DA11DB11DE2E0880F12
:10282000991FAA1FBB1FEA95D1F7861B970B885EDD
:102830009340C8F2215030404040504068517C4F96
:10284000211531054105510571F60895789484B537
:10285000826084BD84B5816084BD85B5826085BD9C
:1028600085B5816085BDEEE6F0E080818160808382
:10287000E1E8F0E010828081826080838081816065
:102880008083E0E8F0E0808181608083E1EBF0E02C
:10289000808184608083E0EBF0E0808181608083D0
:1028A000EAE7F0E0808184608083808182608083B9
:1028B0008081816080838081806880831092C100E4
:1028C0000895CF93DF93482F50E0CA018D569E4F55
:1028D000FC01349141585E4FFA018491882369F1DB
:1028E00090E0880F991FFC01EF59FE4FA591B4911C
:1028F000FC01E559FE4FC591D491662351F42FB7E1
:10290000F8948C91932F909589238C9388818923B7
:102910000BC0623061F42FB7F8948C91932F90958F
:1029200089238C938881832B88832FBF06C09FB710
:10293000F8948C91832B8C939FBFDF91CF91089556
:10294000482F50E0CA0189559E4FFC012491CA01CD
:102950008D569E4FFC01949141585E4FFA0134917F
:10296000332309F440C0222351F1233071F0243085
:1029700028F42130A1F0223011F514C02630B1F036
:102980002730C1F02430D9F404C0809180008F77C3
:1029900003C0809180008F7D8093800010C084B53B
:1029A0008F7702C084B58F7D84BD09C08091B0004F
:1029B0008F7703C08091B0008F7D8093B000E32FAC
:1029C000F0E0EE0FFF1FE559FE4FA591B4912FB730
:1029D000F894662321F48C919095892302C08C9100
:1029E000892B8C932FBF0895823000F5E82FF0E0FB
:1029F000EE0FFF1FE758FA4F71836083882319F0A9
:102A00008130A1F408C0809169008C7F842B809371
:102A10006900E89A089580916900440F551F440F9A
:102A2000551F837F842B80936900E99A0895823033
:102A300080F4882319F0813021F402C0E89801C0A5
:102A4000E998E82FF0E0EE0FFF1FE758FA4F1182E8
:102A5000108208951F920F920FB60F9211242F9398
:102A60003F934F935F936F937F938F939F93AF9316
:102A7000BF93EF93FF938091790590917A05892B0D
:102A800029F0E0917905F0917A050995FF91EF9190
:102A9000BF91AF919F918F917F916F915F914F9176
:102AA0003F912F910F900FBE0F901F9018951F927E
:102AB0000F920FB60F9211242F933F934F935F9372
:102AC0006F937F938F939F93AF93BF93EF93FF93F6
:102AD00080917B0590917C05892B29F0E0917B0505
:102AE000F0917C050995FF91EF91BF91AF919F9176
:102AF0008F917F916F915F914F913F912F910F90A7
:102B00000FBE0F901F901895CF92DF92EF92FF9219
:102B10000F931F93CF93DF937C016B018A01C0E079
:102B2000D0E00FC0D6016D916D01D701ED91FC9100
:102B30000190F081E02DC7010995C80FD91F015000
:102B400010400115110571F7CE01DF91CF911F9152
:102B50000F91FF90EF90DF90CF900895DC01ED9101
:102B6000FC910190F081E02D09950895EF92FF927C
:102B70000F931F938C01DC01ED91FC910190F0818A
:102B8000E02D6DE009957C01D801ED91FC9101905B
:102B9000F081E02DC8016AE009959C012E0D3F1DD2
:102BA000C9011F910F91FF90EF900895CF93DF938C
:102BB000EC016115710519F420E030E00FC0DB0174
:102BC0000D900020E9F71197A61BB70BE881F9815A
:102BD0000280F381E02DAD0109959C01C901DF91CF
:102BE000CF9108954F925F927F928F929F92AF9272
:102BF000BF92CF92DF92EF92FF920F931F93DF93DA
:102C0000CF93CDB7DEB7A1970FB6F894DEBF0FBE56
:102C1000CDBF2C01742ECB01223008F42AE019A27A
:102C200031E2C32ED12CCC0EDD1E822E9924AA2493
:102C3000BB24672D752FA50194010E94E01879012E
:102C40008A01C801B701A50194010E94AD18472D62
:102C5000461B0894C108D1084A3014F4405D01C0F5
:102C6000495CF6014083E114F1040105110521F0EE
:102C70007E2C5F2DC801DDCFC201B6010E94D615A2
:102C8000A1960FB6F894DEBF0FBECDBFCF91DF91F6
:102C90001F910F91FF90EF90DF90CF90BF90AF907A
:102CA0009F908F907F905F904F900895DC01211549
:102CB000310541F4ED91FC910190F081E02D642FFC
:102CC000099508950E94F2150895EF92FF920F93CF
:102CD0001F939A01E62EFF2400E010E0B801A7013F
:102CE0000E9456161F910F91FF90EF9008950E9439
:102CF000D6150895EF92FF920F931F937C010E94C7
:102D0000D6158C01C7010E94B615080F191FC801FE
:102D10001F910F91FF90EF900895CF93DF930E9442
:102D200026140E94DD01C8EDD6E10E9478012097AB
:102D3000E1F30E94D816F9CF08951F920F920FB6B3
:102D40000F9211242F933F934F938F939F93EF9361
:102D5000FF938091C00082FD1DC04091C60020916C
:102D6000BD053091BE052F5F3F4F2F7330708091AE
:102D7000BF059091C0052817390771F0E091BD0596
:102D8000F091BE05E358FA4F40833093BE0520937F
:102D9000BD0502C08091C600FF91EF919F918F9178
:102DA0004F913F912F910F900FBE0F901F9018954C
:102DB000E0911106F0911206E05CFF4F8191919134
:102DC00020813181821B930B8F739070892B11F0BE
:102DD0000E949C1608951F920F920FB60F92112415
:102DE0002F933F938F939F93EF93FF93209101062F
:102DF0003091020680910306909104062817390746
:102E000031F48091C1008F7D8093C10014C0E091A6
:102E10000306F0910406EF53FA4F208180910306D8
:102E20009091040601968F7390709093040680939E
:102E300003062093C600FF91EF919F918F913F91E0
:102E40002F910F900FBE0F901F901895AF92BF92C9
:102E5000DF92EF92FF920F931F93CF93DF93EC01DA
:102E60007A018B01DD24403081EE580780E068074D
:102E700080E0780711F0DD24D39491E0A92EB12CE5
:102E8000EC89FD89DD2069F0C50108A002C0880F2A
:102E9000991F0A94E2F7808360E079E08DE390E087
:102EA00005C0108260E874E88EE190E0A801970107
:102EB0000E94E018215030404040504056954795C0
:102EC0003795279580E12030380720F0DD2011F07C
:102ED000DD24D6CFE889F9893083EA89FB8920830C
:102EE00019A2EE89FF89408121E030E0C9010C8CF4
:102EF00002C0880F991F0A94E2F7482B4083EE899D
:102F0000FF894081C9010D8C02C0880F991F0A9466
:102F1000E2F7482B4083EE89FF894081C9010E8C7E
:102F200002C0880F991F0A94E2F7482B4083EE896C
:102F3000FF8980810F8C02C0220F331F0A94E2F7B1
:102F4000209528232083DF91CF911F910F91FF902F
:102F5000EF90DF90BF90AF900895DC011C96ED914B
:102F6000FC911D97E05CFF4F21913191808191810F
:102F7000281B390B2F733070C9010895DC011C9692
:102F8000ED91FC911D97E05CFF4F20813181E05471
:102F9000F040DF01AE5BBF4F8D919C9111972817D8
:102FA000390719F42FEF3FEF07C08D919C91E80F7F
:102FB000F91F8081282F30E0C9010895DC011C969B
:102FC000ED91FC911D97E05CFF4F20813181E05431
:102FD000F040DF01AE5BBF4F8D919C911197281798
:102FE000390719F42FEF3FEF10C08D919C91119785
:102FF000E80FF91F20818D919C91119701968F7395
:10300000907011969C938E9330E0C9010895DC0175
:1030100091968C919197882339F05496ED91FC917B
:103020005597808186FFF9CF91961C920895CF9392
:10303000DF93EC01EE85FF85E05CFF4F208131815D
:10304000E054F0402F5F3F4F2F733070DF01AE5BD5
:10305000BF4F8D919C91119728173907D1F3E05CF0
:10306000FF4F80819181E054F040E80FF91F6083A9
:10307000EE85FF85E05CFF4F31832083EE89FF8979
:10308000208181E090E00F8C02C0880F991F0A9484
:10309000E2F7282B208381E089A3EC89FD898081D8
:1030A0008064808381E090E0DF91CF910895109259
:1030B00008061092070688EE93E0A0E0B0E0809347
:1030C000090690930A06A0930B06B0930C0687EDB1
:1030D00091E090930606809305068DE795E0909326
:1030E00012068093110681EC95E09093140680936C
:1030F000130685EC90E0909316068093150684ECF9
:1031000090E0909318068093170680EC90E09093DF
:103110001A068093190681EC90E090931C06809328
:103120001B0682EC90E090931E0680931D0686ECB1
:1031300090E09093200680931F0684E08093210600
:1031400083E08093220687E08093230685E08093C6
:10315000240681E0809325060895629FD001739F25
:10316000F001829FE00DF11D649FE00DF11D929F23
:10317000F00D839FF00D749FF00D659FF00D992762
:10318000729FB00DE11DF91F639FB00DE11DF91F86
:10319000BD01CF0111240895AA1BBB1B51E107C03B
:1031A000AA1FBB1FA617B70710F0A61BB70B881FD7
:1031B000991F5A95A9F780959095BC01CD01089566
:1031C000A1E21A2EAA1BBB1BFD010DC0AA1FBB1F2B
:1031D000EE1FFF1FA217B307E407F50720F0A21B9D
:1031E000B30BE40BF50B661F771F881F991F1A940A
:1031F00069F760957095809590959B01AC01BD0134
:10320000CF010895EE0FFF1F0590F491E02D099472
:04321000F894FFCF60
:103214000A3E3E3E2052455100626172003C3C3CF5
:10322400207265706C792000206D73000A5B6765FD
:103234007444484350616E64444E535D0046616972
:103244006C656420746F20616363657373204574D7
:103254006865726E657420636F6E74726F6C6C65F2
:10326400720044484350206661696C6564004D797E
:103274002049503A200047572049503A2000444EF4
:10328400532049503A2000444E53206661696C65CE
:1032940064005365727665723A20000D0A000032AC
:1032A4003030007469692D303141726475696E6F14
:1032B4002D30300000000000003703010306FF63D7
:1032C40082536350000100010A000000000000FF67
:1032D400FFFFFFFFFFFFFFFFFFFFFF000000002DC8
:1032E4000A84150000000017188415AD17DE17BEF8
:0432F40017071800A0
:00000001FF
